{
  "contractName": "SolarRouter02",
  "abi": [
    {
      "inputs": [
        {
          "internalType": "address",
          "name": "_factory",
          "type": "address"
        },
        {
          "internalType": "address",
          "name": "_WETH",
          "type": "address"
        }
      ],
      "stateMutability": "nonpayable",
      "type": "constructor"
    },
    {
      "inputs": [],
      "name": "WETH",
      "outputs": [
        {
          "internalType": "address",
          "name": "",
          "type": "address"
        }
      ],
      "stateMutability": "view",
      "type": "function",
      "constant": true
    },
    {
      "inputs": [],
      "name": "factory",
      "outputs": [
        {
          "internalType": "address",
          "name": "",
          "type": "address"
        }
      ],
      "stateMutability": "view",
      "type": "function",
      "constant": true
    },
    {
      "stateMutability": "payable",
      "type": "receive",
      "payable": true
    },
    {
      "inputs": [
        {
          "internalType": "address",
          "name": "tokenA",
          "type": "address"
        },
        {
          "internalType": "address",
          "name": "tokenB",
          "type": "address"
        },
        {
          "internalType": "uint256",
          "name": "amountADesired",
          "type": "uint256"
        },
        {
          "internalType": "uint256",
          "name": "amountBDesired",
          "type": "uint256"
        },
        {
          "internalType": "uint256",
          "name": "amountAMin",
          "type": "uint256"
        },
        {
          "internalType": "uint256",
          "name": "amountBMin",
          "type": "uint256"
        },
        {
          "internalType": "address",
          "name": "to",
          "type": "address"
        },
        {
          "internalType": "uint256",
          "name": "deadline",
          "type": "uint256"
        }
      ],
      "name": "addLiquidity",
      "outputs": [
        {
          "internalType": "uint256",
          "name": "amountA",
          "type": "uint256"
        },
        {
          "internalType": "uint256",
          "name": "amountB",
          "type": "uint256"
        },
        {
          "internalType": "uint256",
          "name": "liquidity",
          "type": "uint256"
        }
      ],
      "stateMutability": "nonpayable",
      "type": "function"
    },
    {
      "inputs": [
        {
          "internalType": "address",
          "name": "token",
          "type": "address"
        },
        {
          "internalType": "uint256",
          "name": "amountTokenDesired",
          "type": "uint256"
        },
        {
          "internalType": "uint256",
          "name": "amountTokenMin",
          "type": "uint256"
        },
        {
          "internalType": "uint256",
          "name": "amountETHMin",
          "type": "uint256"
        },
        {
          "internalType": "address",
          "name": "to",
          "type": "address"
        },
        {
          "internalType": "uint256",
          "name": "deadline",
          "type": "uint256"
        }
      ],
      "name": "addLiquidityETH",
      "outputs": [
        {
          "internalType": "uint256",
          "name": "amountToken",
          "type": "uint256"
        },
        {
          "internalType": "uint256",
          "name": "amountETH",
          "type": "uint256"
        },
        {
          "internalType": "uint256",
          "name": "liquidity",
          "type": "uint256"
        }
      ],
      "stateMutability": "payable",
      "type": "function",
      "payable": true
    },
    {
      "inputs": [
        {
          "internalType": "address",
          "name": "tokenA",
          "type": "address"
        },
        {
          "internalType": "address",
          "name": "tokenB",
          "type": "address"
        },
        {
          "internalType": "uint256",
          "name": "liquidity",
          "type": "uint256"
        },
        {
          "internalType": "uint256",
          "name": "amountAMin",
          "type": "uint256"
        },
        {
          "internalType": "uint256",
          "name": "amountBMin",
          "type": "uint256"
        },
        {
          "internalType": "address",
          "name": "to",
          "type": "address"
        },
        {
          "internalType": "uint256",
          "name": "deadline",
          "type": "uint256"
        }
      ],
      "name": "removeLiquidity",
      "outputs": [
        {
          "internalType": "uint256",
          "name": "amountA",
          "type": "uint256"
        },
        {
          "internalType": "uint256",
          "name": "amountB",
          "type": "uint256"
        }
      ],
      "stateMutability": "nonpayable",
      "type": "function"
    },
    {
      "inputs": [
        {
          "internalType": "address",
          "name": "token",
          "type": "address"
        },
        {
          "internalType": "uint256",
          "name": "liquidity",
          "type": "uint256"
        },
        {
          "internalType": "uint256",
          "name": "amountTokenMin",
          "type": "uint256"
        },
        {
          "internalType": "uint256",
          "name": "amountETHMin",
          "type": "uint256"
        },
        {
          "internalType": "address",
          "name": "to",
          "type": "address"
        },
        {
          "internalType": "uint256",
          "name": "deadline",
          "type": "uint256"
        }
      ],
      "name": "removeLiquidityETH",
      "outputs": [
        {
          "internalType": "uint256",
          "name": "amountToken",
          "type": "uint256"
        },
        {
          "internalType": "uint256",
          "name": "amountETH",
          "type": "uint256"
        }
      ],
      "stateMutability": "nonpayable",
      "type": "function"
    },
    {
      "inputs": [
        {
          "internalType": "address",
          "name": "tokenA",
          "type": "address"
        },
        {
          "internalType": "address",
          "name": "tokenB",
          "type": "address"
        },
        {
          "internalType": "uint256",
          "name": "liquidity",
          "type": "uint256"
        },
        {
          "internalType": "uint256",
          "name": "amountAMin",
          "type": "uint256"
        },
        {
          "internalType": "uint256",
          "name": "amountBMin",
          "type": "uint256"
        },
        {
          "internalType": "address",
          "name": "to",
          "type": "address"
        },
        {
          "internalType": "uint256",
          "name": "deadline",
          "type": "uint256"
        },
        {
          "internalType": "bool",
          "name": "approveMax",
          "type": "bool"
        },
        {
          "internalType": "uint8",
          "name": "v",
          "type": "uint8"
        },
        {
          "internalType": "bytes32",
          "name": "r",
          "type": "bytes32"
        },
        {
          "internalType": "bytes32",
          "name": "s",
          "type": "bytes32"
        }
      ],
      "name": "removeLiquidityWithPermit",
      "outputs": [
        {
          "internalType": "uint256",
          "name": "amountA",
          "type": "uint256"
        },
        {
          "internalType": "uint256",
          "name": "amountB",
          "type": "uint256"
        }
      ],
      "stateMutability": "nonpayable",
      "type": "function"
    },
    {
      "inputs": [
        {
          "internalType": "address",
          "name": "token",
          "type": "address"
        },
        {
          "internalType": "uint256",
          "name": "liquidity",
          "type": "uint256"
        },
        {
          "internalType": "uint256",
          "name": "amountTokenMin",
          "type": "uint256"
        },
        {
          "internalType": "uint256",
          "name": "amountETHMin",
          "type": "uint256"
        },
        {
          "internalType": "address",
          "name": "to",
          "type": "address"
        },
        {
          "internalType": "uint256",
          "name": "deadline",
          "type": "uint256"
        },
        {
          "internalType": "bool",
          "name": "approveMax",
          "type": "bool"
        },
        {
          "internalType": "uint8",
          "name": "v",
          "type": "uint8"
        },
        {
          "internalType": "bytes32",
          "name": "r",
          "type": "bytes32"
        },
        {
          "internalType": "bytes32",
          "name": "s",
          "type": "bytes32"
        }
      ],
      "name": "removeLiquidityETHWithPermit",
      "outputs": [
        {
          "internalType": "uint256",
          "name": "amountToken",
          "type": "uint256"
        },
        {
          "internalType": "uint256",
          "name": "amountETH",
          "type": "uint256"
        }
      ],
      "stateMutability": "nonpayable",
      "type": "function"
    },
    {
      "inputs": [
        {
          "internalType": "address",
          "name": "token",
          "type": "address"
        },
        {
          "internalType": "uint256",
          "name": "liquidity",
          "type": "uint256"
        },
        {
          "internalType": "uint256",
          "name": "amountTokenMin",
          "type": "uint256"
        },
        {
          "internalType": "uint256",
          "name": "amountETHMin",
          "type": "uint256"
        },
        {
          "internalType": "address",
          "name": "to",
          "type": "address"
        },
        {
          "internalType": "uint256",
          "name": "deadline",
          "type": "uint256"
        }
      ],
      "name": "removeLiquidityETHSupportingFeeOnTransferTokens",
      "outputs": [
        {
          "internalType": "uint256",
          "name": "amountETH",
          "type": "uint256"
        }
      ],
      "stateMutability": "nonpayable",
      "type": "function"
    },
    {
      "inputs": [
        {
          "internalType": "address",
          "name": "token",
          "type": "address"
        },
        {
          "internalType": "uint256",
          "name": "liquidity",
          "type": "uint256"
        },
        {
          "internalType": "uint256",
          "name": "amountTokenMin",
          "type": "uint256"
        },
        {
          "internalType": "uint256",
          "name": "amountETHMin",
          "type": "uint256"
        },
        {
          "internalType": "address",
          "name": "to",
          "type": "address"
        },
        {
          "internalType": "uint256",
          "name": "deadline",
          "type": "uint256"
        },
        {
          "internalType": "bool",
          "name": "approveMax",
          "type": "bool"
        },
        {
          "internalType": "uint8",
          "name": "v",
          "type": "uint8"
        },
        {
          "internalType": "bytes32",
          "name": "r",
          "type": "bytes32"
        },
        {
          "internalType": "bytes32",
          "name": "s",
          "type": "bytes32"
        }
      ],
      "name": "removeLiquidityETHWithPermitSupportingFeeOnTransferTokens",
      "outputs": [
        {
          "internalType": "uint256",
          "name": "amountETH",
          "type": "uint256"
        }
      ],
      "stateMutability": "nonpayable",
      "type": "function"
    },
    {
      "inputs": [
        {
          "internalType": "uint256",
          "name": "amountIn",
          "type": "uint256"
        },
        {
          "internalType": "uint256",
          "name": "amountOutMin",
          "type": "uint256"
        },
        {
          "internalType": "address[]",
          "name": "path",
          "type": "address[]"
        },
        {
          "internalType": "address",
          "name": "to",
          "type": "address"
        },
        {
          "internalType": "uint256",
          "name": "deadline",
          "type": "uint256"
        }
      ],
      "name": "swapExactTokensForTokens",
      "outputs": [
        {
          "internalType": "uint256[]",
          "name": "amounts",
          "type": "uint256[]"
        }
      ],
      "stateMutability": "nonpayable",
      "type": "function"
    },
    {
      "inputs": [
        {
          "internalType": "uint256",
          "name": "amountOut",
          "type": "uint256"
        },
        {
          "internalType": "uint256",
          "name": "amountInMax",
          "type": "uint256"
        },
        {
          "internalType": "address[]",
          "name": "path",
          "type": "address[]"
        },
        {
          "internalType": "address",
          "name": "to",
          "type": "address"
        },
        {
          "internalType": "uint256",
          "name": "deadline",
          "type": "uint256"
        }
      ],
      "name": "swapTokensForExactTokens",
      "outputs": [
        {
          "internalType": "uint256[]",
          "name": "amounts",
          "type": "uint256[]"
        }
      ],
      "stateMutability": "nonpayable",
      "type": "function"
    },
    {
      "inputs": [
        {
          "internalType": "uint256",
          "name": "amountOutMin",
          "type": "uint256"
        },
        {
          "internalType": "address[]",
          "name": "path",
          "type": "address[]"
        },
        {
          "internalType": "address",
          "name": "to",
          "type": "address"
        },
        {
          "internalType": "uint256",
          "name": "deadline",
          "type": "uint256"
        }
      ],
      "name": "swapExactETHForTokens",
      "outputs": [
        {
          "internalType": "uint256[]",
          "name": "amounts",
          "type": "uint256[]"
        }
      ],
      "stateMutability": "payable",
      "type": "function",
      "payable": true
    },
    {
      "inputs": [
        {
          "internalType": "uint256",
          "name": "amountOut",
          "type": "uint256"
        },
        {
          "internalType": "uint256",
          "name": "amountInMax",
          "type": "uint256"
        },
        {
          "internalType": "address[]",
          "name": "path",
          "type": "address[]"
        },
        {
          "internalType": "address",
          "name": "to",
          "type": "address"
        },
        {
          "internalType": "uint256",
          "name": "deadline",
          "type": "uint256"
        }
      ],
      "name": "swapTokensForExactETH",
      "outputs": [
        {
          "internalType": "uint256[]",
          "name": "amounts",
          "type": "uint256[]"
        }
      ],
      "stateMutability": "nonpayable",
      "type": "function"
    },
    {
      "inputs": [
        {
          "internalType": "uint256",
          "name": "amountIn",
          "type": "uint256"
        },
        {
          "internalType": "uint256",
          "name": "amountOutMin",
          "type": "uint256"
        },
        {
          "internalType": "address[]",
          "name": "path",
          "type": "address[]"
        },
        {
          "internalType": "address",
          "name": "to",
          "type": "address"
        },
        {
          "internalType": "uint256",
          "name": "deadline",
          "type": "uint256"
        }
      ],
      "name": "swapExactTokensForETH",
      "outputs": [
        {
          "internalType": "uint256[]",
          "name": "amounts",
          "type": "uint256[]"
        }
      ],
      "stateMutability": "nonpayable",
      "type": "function"
    },
    {
      "inputs": [
        {
          "internalType": "uint256",
          "name": "amountOut",
          "type": "uint256"
        },
        {
          "internalType": "address[]",
          "name": "path",
          "type": "address[]"
        },
        {
          "internalType": "address",
          "name": "to",
          "type": "address"
        },
        {
          "internalType": "uint256",
          "name": "deadline",
          "type": "uint256"
        }
      ],
      "name": "swapETHForExactTokens",
      "outputs": [
        {
          "internalType": "uint256[]",
          "name": "amounts",
          "type": "uint256[]"
        }
      ],
      "stateMutability": "payable",
      "type": "function",
      "payable": true
    },
    {
      "inputs": [
        {
          "internalType": "uint256",
          "name": "amountA",
          "type": "uint256"
        },
        {
          "internalType": "uint256",
          "name": "reserveA",
          "type": "uint256"
        },
        {
          "internalType": "uint256",
          "name": "reserveB",
          "type": "uint256"
        }
      ],
      "name": "quote",
      "outputs": [
        {
          "internalType": "uint256",
          "name": "amountB",
          "type": "uint256"
        }
      ],
      "stateMutability": "pure",
      "type": "function",
      "constant": true
    },
    {
      "inputs": [
        {
          "internalType": "uint256",
          "name": "amountIn",
          "type": "uint256"
        },
        {
          "internalType": "uint256",
          "name": "reserveIn",
          "type": "uint256"
        },
        {
          "internalType": "uint256",
          "name": "reserveOut",
          "type": "uint256"
        }
      ],
      "name": "getAmountOut",
      "outputs": [
        {
          "internalType": "uint256",
          "name": "amountOut",
          "type": "uint256"
        }
      ],
      "stateMutability": "pure",
      "type": "function",
      "constant": true
    },
    {
      "inputs": [
        {
          "internalType": "uint256",
          "name": "amountOut",
          "type": "uint256"
        },
        {
          "internalType": "uint256",
          "name": "reserveIn",
          "type": "uint256"
        },
        {
          "internalType": "uint256",
          "name": "reserveOut",
          "type": "uint256"
        }
      ],
      "name": "getAmountIn",
      "outputs": [
        {
          "internalType": "uint256",
          "name": "amountIn",
          "type": "uint256"
        }
      ],
      "stateMutability": "pure",
      "type": "function",
      "constant": true
    },
    {
      "inputs": [
        {
          "internalType": "uint256",
          "name": "amountIn",
          "type": "uint256"
        },
        {
          "internalType": "address[]",
          "name": "path",
          "type": "address[]"
        }
      ],
      "name": "getAmountsOut",
      "outputs": [
        {
          "internalType": "uint256[]",
          "name": "amounts",
          "type": "uint256[]"
        }
      ],
      "stateMutability": "view",
      "type": "function",
      "constant": true
    },
    {
      "inputs": [
        {
          "internalType": "uint256",
          "name": "amountOut",
          "type": "uint256"
        },
        {
          "internalType": "address[]",
          "name": "path",
          "type": "address[]"
        }
      ],
      "name": "getAmountsIn",
      "outputs": [
        {
          "internalType": "uint256[]",
          "name": "amounts",
          "type": "uint256[]"
        }
      ],
      "stateMutability": "view",
      "type": "function",
      "constant": true
    }
  ],
  "bytecode": "0x60c060405234801561001057600080fd5b50604051613ae4380380613ae48339818101604052604081101561003357600080fd5b5080516020909101516001600160601b0319606092831b8116608052911b1660a05260805160601c60a05160601c6139946101506000398061017e5280610b6c5280610ba75280610ca75280610ed7528061127352806113eb528061152052806116785280611700528061196252806119e65280611a9a5280611e03528061207f52806120d55280612109528061217d5280612314528061246952806124f1525080610d475280610e1e5280610f9d5280610fd6528061111a528061131352806113c952806115c5528061173252806118b25280611b775280611d885280611db15280611de15280611f5752806120b352806123b952806125235280612e275280612e6a5280613369528061342252806134d552506139946000f3fe60806040526004361061016e5760003560e01c80638803dbee116100cb578063c45a01551161007f578063e8e3370011610059578063e8e33700146109ca578063f305d71914610a4a578063fb3bdb4114610a90576101a7565b8063c45a01551461088b578063d06ca61f146108a0578063ded9382a14610957576101a7565b8063ad615dec116100b0578063ad615dec146107a5578063af2979eb146107db578063baa2abde1461082e576101a7565b80638803dbee146106dc578063ad5c464814610774576101a7565b806338ed1739116101225780635b0d5984116101075780635b0d5984146105ad5780637ff36ab51461062057806385f8c259146106a6576101a7565b806338ed17391461047d5780634a25d94a14610515576101a7565b806318cbafe51161015357806318cbafe5146102605780631f00ca74146103485780632195995c146103ff576101a7565b806302751cec146101ac578063054d50d414610218576101a7565b366101a757336001600160a01b037f000000000000000000000000000000000000000000000000000000000000000016146101a557fe5b005b600080fd5b3480156101b857600080fd5b506101ff600480360360c08110156101cf57600080fd5b506001600160a01b0381358116916020810135916040820135916060810135916080820135169060a00135610b16565b6040805192835260208301919091528051918290030190f35b34801561022457600080fd5b5061024e6004803603606081101561023b57600080fd5b5080359060208101359060400135610c39565b60408051918252519081900360200190f35b34801561026c57600080fd5b506102f8600480360360a081101561028357600080fd5b8135916020810135918101906060810160408201356401000000008111156102aa57600080fd5b8201836020820111156102bc57600080fd5b803590602001918460208302840111640100000000831117156102de57600080fd5b91935091506001600160a01b038135169060200135610c4e565b60408051602080825283518183015283519192839290830191858101910280838360005b8381101561033457818101518382015260200161031c565b505050509050019250505060405180910390f35b34801561035457600080fd5b506102f86004803603604081101561036b57600080fd5b8135919081019060408101602082013564010000000081111561038d57600080fd5b82018360208201111561039f57600080fd5b803590602001918460208302840111640100000000831117156103c157600080fd5b919080806020026020016040519081016040528093929190818152602001838360200280828437600092019190915250929550610f96945050505050565b34801561040b57600080fd5b506101ff600480360361016081101561042357600080fd5b506001600160a01b038135811691602081013582169160408201359160608101359160808201359160a08101359091169060c08101359060e081013515159060ff6101008201351690610120810135906101400135610fcc565b34801561048957600080fd5b506102f8600480360360a08110156104a057600080fd5b8135916020810135918101906060810160408201356401000000008111156104c757600080fd5b8201836020820111156104d957600080fd5b803590602001918460208302840111640100000000831117156104fb57600080fd5b91935091506001600160a01b0381351690602001356110c6565b34801561052157600080fd5b506102f8600480360360a081101561053857600080fd5b81359160208101359181019060608101604082013564010000000081111561055f57600080fd5b82018360208201111561057157600080fd5b8035906020019184602083028401116401000000008311171561059357600080fd5b91935091506001600160a01b03813516906020013561121a565b3480156105b957600080fd5b5061024e60048036036101408110156105d157600080fd5b506001600160a01b0381358116916020810135916040820135916060810135916080820135169060a08101359060c081013515159060ff60e082013516906101008101359061012001356113c1565b6102f86004803603608081101561063657600080fd5b8135919081019060408101602082013564010000000081111561065857600080fd5b82018360208201111561066a57600080fd5b8035906020019184602083028401116401000000008311171561068c57600080fd5b91935091506001600160a01b0381351690602001356114cf565b3480156106b257600080fd5b5061024e600480360360608110156106c957600080fd5b5080359060208101359060400135611851565b3480156106e857600080fd5b506102f8600480360360a08110156106ff57600080fd5b81359160208101359181019060608101604082013564010000000081111561072657600080fd5b82018360208201111561073857600080fd5b8035906020019184602083028401116401000000008311171561075a57600080fd5b91935091506001600160a01b03813516906020013561185e565b34801561078057600080fd5b50610789611960565b604080516001600160a01b039092168252519081900360200190f35b3480156107b157600080fd5b5061024e600480360360608110156107c857600080fd5b5080359060208101359060400135611984565b3480156107e757600080fd5b5061024e600480360360c08110156107fe57600080fd5b506001600160a01b0381358116916020810135916040820135916060810135916080820135169060a00135611991565b34801561083a57600080fd5b506101ff600480360360e081101561085157600080fd5b506001600160a01b038135811691602081013582169160408201359160608101359160808201359160a08101359091169060c00135611b20565b34801561089757600080fd5b50610789611d86565b3480156108ac57600080fd5b506102f8600480360360408110156108c357600080fd5b813591908101906040810160208201356401000000008111156108e557600080fd5b8201836020820111156108f757600080fd5b8035906020019184602083028401116401000000008311171561091957600080fd5b919080806020026020016040519081016040528093929190818152602001838360200280828437600092019190915250929550611daa945050505050565b34801561096357600080fd5b506101ff600480360361014081101561097b57600080fd5b506001600160a01b0381358116916020810135916040820135916060810135916080820135169060a08101359060c081013515159060ff60e08201351690610100810135906101200135611dd7565b3480156109d657600080fd5b50610a2c60048036036101008110156109ee57600080fd5b506001600160a01b038135811691602081013582169160408201359160608101359160808201359160a08101359160c0820135169060e00135611eeb565b60408051938452602084019290925282820152519081900360600190f35b610a2c600480360360c0811015610a6057600080fd5b506001600160a01b0381358116916020810135916040820135916060810135916080820135169060a00135612027565b6102f860048036036080811015610aa657600080fd5b81359190810190604081016020820135640100000000811115610ac857600080fd5b820183602082011115610ada57600080fd5b80359060200191846020830284011164010000000083111715610afc57600080fd5b91935091506001600160a01b0381351690602001356122c3565b6000808242811015610b66576040805162461bcd60e51b815260206004820152601460248201527314dbdb185c949bdd5d195c8e881156141254915160621b604482015290519081900360640190fd5b610b95897f00000000000000000000000000000000000000000000000000000000000000008a8a8a308a611b20565b9093509150610ba5898685612657565b7f00000000000000000000000000000000000000000000000000000000000000006001600160a01b0316632e1a7d4d836040518263ffffffff1660e01b815260040180828152602001915050600060405180830381600087803b158015610c0b57600080fd5b505af1158015610c1f573d6000803e3d6000fd5b50505050610c2d85836127ef565b50965096945050505050565b6000610c468484846128e7565b949350505050565b60608142811015610c9d576040805162461bcd60e51b815260206004820152601460248201527314dbdb185c949bdd5d195c8e881156141254915160621b604482015290519081900360640190fd5b6001600160a01b037f00000000000000000000000000000000000000000000000000000000000000001686866000198101818110610cd757fe5b905060200201356001600160a01b03166001600160a01b031614610d42576040805162461bcd60e51b815260206004820152601960248201527f536f6c6172526f757465723a20494e56414c49445f5041544800000000000000604482015290519081900360640190fd5b610da07f0000000000000000000000000000000000000000000000000000000000000000898888808060200260200160405190810160405280939291908181526020018383602002808284376000920191909152506129cf92505050565b91508682600184510381518110610db357fe5b60200260200101511015610df85760405162461bcd60e51b81526004018080602001828103825260278152602001806138aa6027913960400191505060405180910390fd5b610e9686866000818110610e0857fe5b905060200201356001600160a01b031633610e7c7f00000000000000000000000000000000000000000000000000000000000000008a8a6000818110610e4a57fe5b905060200201356001600160a01b03168b8b6001818110610e6757fe5b905060200201356001600160a01b0316612b1b565b85600081518110610e8957fe5b6020026020010151612c06565b610ed582878780806020026020016040519081016040528093929190818152602001838360200280828437600092019190915250309250612d78915050565b7f00000000000000000000000000000000000000000000000000000000000000006001600160a01b0316632e1a7d4d83600185510381518110610f1457fe5b60200260200101516040518263ffffffff1660e01b815260040180828152602001915050600060405180830381600087803b158015610f5257600080fd5b505af1158015610f66573d6000803e3d6000fd5b50505050610f8b8483600185510381518110610f7e57fe5b60200260200101516127ef565b509695505050505050565b6060610fc37f00000000000000000000000000000000000000000000000000000000000000008484612fb5565b90505b92915050565b6000806000610ffc7f00000000000000000000000000000000000000000000000000000000000000008f8f612b1b565b905060008761100b578c61100f565b6000195b6040805163d505accf60e01b815233600482015230602482015260448101839052606481018c905260ff8a16608482015260a4810189905260c4810188905290519192506001600160a01b0384169163d505accf9160e48082019260009290919082900301818387803b15801561108557600080fd5b505af1158015611099573d6000803e3d6000fd5b505050506110ac8f8f8f8f8f8f8f611b20565b809450819550505050509b509b9950505050505050505050565b60608142811015611115576040805162461bcd60e51b815260206004820152601460248201527314dbdb185c949bdd5d195c8e881156141254915160621b604482015290519081900360640190fd5b6111737f0000000000000000000000000000000000000000000000000000000000000000898888808060200260200160405190810160405280939291908181526020018383602002808284376000920191909152506129cf92505050565b9150868260018451038151811061118657fe5b602002602001015110156111cb5760405162461bcd60e51b81526004018080602001828103825260278152602001806138aa6027913960400191505060405180910390fd5b6111db86866000818110610e0857fe5b610f8b82878780806020026020016040519081016040528093929190818152602001838360200280828437600092019190915250899250612d78915050565b60608142811015611269576040805162461bcd60e51b815260206004820152601460248201527314dbdb185c949bdd5d195c8e881156141254915160621b604482015290519081900360640190fd5b6001600160a01b037f000000000000000000000000000000000000000000000000000000000000000016868660001981018181106112a357fe5b905060200201356001600160a01b03166001600160a01b03161461130e576040805162461bcd60e51b815260206004820152601960248201527f536f6c6172526f757465723a20494e56414c49445f5041544800000000000000604482015290519081900360640190fd5b61136c7f000000000000000000000000000000000000000000000000000000000000000089888880806020026020016040519081016040528093929190818152602001838360200280828437600092019190915250612fb592505050565b9150868260008151811061137c57fe5b60200260200101511115610df85760405162461bcd60e51b815260040180806020018281038252602381526020018061393c6023913960400191505060405180910390fd5b60008061140f7f00000000000000000000000000000000000000000000000000000000000000008d7f0000000000000000000000000000000000000000000000000000000000000000612b1b565b905060008661141e578b611422565b6000195b6040805163d505accf60e01b815233600482015230602482015260448101839052606481018b905260ff8916608482015260a4810188905260c4810187905290519192506001600160a01b0384169163d505accf9160e48082019260009290919082900301818387803b15801561149857600080fd5b505af11580156114ac573d6000803e3d6000fd5b505050506114be8d8d8d8d8d8d611991565b9d9c50505050505050505050505050565b6060814281101561151e576040805162461bcd60e51b815260206004820152601460248201527314dbdb185c949bdd5d195c8e881156141254915160621b604482015290519081900360640190fd5b7f00000000000000000000000000000000000000000000000000000000000000006001600160a01b03168686600081811061155557fe5b905060200201356001600160a01b03166001600160a01b0316146115c0576040805162461bcd60e51b815260206004820152601960248201527f536f6c6172526f757465723a20494e56414c49445f5041544800000000000000604482015290519081900360640190fd5b61161e7f0000000000000000000000000000000000000000000000000000000000000000348888808060200260200160405190810160405280939291908181526020018383602002808284376000920191909152506129cf92505050565b9150868260018451038151811061163157fe5b602002602001015110156116765760405162461bcd60e51b81526004018080602001828103825260278152602001806138aa6027913960400191505060405180910390fd5b7f00000000000000000000000000000000000000000000000000000000000000006001600160a01b031663d0e30db0836000815181106116b257fe5b60200260200101516040518263ffffffff1660e01b81526004016000604051808303818588803b1580156116e557600080fd5b505af11580156116f9573d6000803e3d6000fd5b50505050507f00000000000000000000000000000000000000000000000000000000000000006001600160a01b031663a9059cbb61177b7f00000000000000000000000000000000000000000000000000000000000000008989600081811061175e57fe5b905060200201356001600160a01b03168a8a6001818110610e6757fe5b8460008151811061178857fe5b60200260200101516040518363ffffffff1660e01b815260040180836001600160a01b0316815260200182815260200192505050602060405180830381600087803b1580156117d657600080fd5b505af11580156117ea573d6000803e3d6000fd5b505050506040513d602081101561180057600080fd5b505161180857fe5b61184782878780806020026020016040519081016040528093929190818152602001838360200280828437600092019190915250899250612d78915050565b5095945050505050565b6000610c468484846130ed565b606081428110156118ad576040805162461bcd60e51b815260206004820152601460248201527314dbdb185c949bdd5d195c8e881156141254915160621b604482015290519081900360640190fd5b61190b7f000000000000000000000000000000000000000000000000000000000000000089888880806020026020016040519081016040528093929190818152602001838360200280828437600092019190915250612fb592505050565b9150868260008151811061191b57fe5b602002602001015111156111cb5760405162461bcd60e51b815260040180806020018281038252602381526020018061393c6023913960400191505060405180910390fd5b7f000000000000000000000000000000000000000000000000000000000000000081565b6000610c468484846131d5565b600081428110156119e0576040805162461bcd60e51b815260206004820152601460248201527314dbdb185c949bdd5d195c8e881156141254915160621b604482015290519081900360640190fd5b611a0f887f00000000000000000000000000000000000000000000000000000000000000008989893089611b20565b905080925050611a9888858a6001600160a01b03166370a08231306040518263ffffffff1660e01b815260040180826001600160a01b0316815260200191505060206040518083038186803b158015611a6757600080fd5b505afa158015611a7b573d6000803e3d6000fd5b505050506040513d6020811015611a9157600080fd5b5051612657565b7f00000000000000000000000000000000000000000000000000000000000000006001600160a01b0316632e1a7d4d836040518263ffffffff1660e01b815260040180828152602001915050600060405180830381600087803b158015611afe57600080fd5b505af1158015611b12573d6000803e3d6000fd5b50505050610f8b84836127ef565b6000808242811015611b70576040805162461bcd60e51b815260206004820152601460248201527314dbdb185c949bdd5d195c8e881156141254915160621b604482015290519081900360640190fd5b6000611b9d7f00000000000000000000000000000000000000000000000000000000000000008c8c612b1b565b604080516323b872dd60e01b81523360048201526001600160a01b03831660248201819052604482018d9052915192935090916323b872dd916064808201926020929091908290030181600087803b158015611bf857600080fd5b505af1158015611c0c573d6000803e3d6000fd5b505050506040513d6020811015611c2257600080fd5b5050604080517f89afcb440000000000000000000000000000000000000000000000000000000081526001600160a01b03888116600483015282516000938493928616926389afcb44926024808301939282900301818787803b158015611c8857600080fd5b505af1158015611c9c573d6000803e3d6000fd5b505050506040513d6040811015611cb257600080fd5b50805160209091015190925090506000611ccc8e8e61327b565b509050806001600160a01b03168e6001600160a01b031614611cef578183611cf2565b82825b90975095508a871015611d365760405162461bcd60e51b81526004018080602001828103825260228152602001806138676022913960400191505060405180910390fd5b89861015611d755760405162461bcd60e51b81526004018080602001828103825260228152602001806138456022913960400191505060405180910390fd5b505050505097509795505050505050565b7f000000000000000000000000000000000000000000000000000000000000000081565b6060610fc37f000000000000000000000000000000000000000000000000000000000000000084846129cf565b6000806000611e277f00000000000000000000000000000000000000000000000000000000000000008e7f0000000000000000000000000000000000000000000000000000000000000000612b1b565b9050600087611e36578c611e3a565b6000195b6040805163d505accf60e01b815233600482015230602482015260448101839052606481018c905260ff8a16608482015260a4810189905260c4810188905290519192506001600160a01b0384169163d505accf9160e48082019260009290919082900301818387803b158015611eb057600080fd5b505af1158015611ec4573d6000803e3d6000fd5b50505050611ed68e8e8e8e8e8e610b16565b909f909e509c50505050505050505050505050565b60008060008342811015611f3d576040805162461bcd60e51b815260206004820152601460248201527314dbdb185c949bdd5d195c8e881156141254915160621b604482015290519081900360640190fd5b611f4b8c8c8c8c8c8c613359565b90945092506000611f7d7f00000000000000000000000000000000000000000000000000000000000000008e8e612b1b565b9050611f8b8d338388612c06565b611f978c338387612c06565b806001600160a01b0316636a627842886040518263ffffffff1660e01b815260040180826001600160a01b03168152602001915050602060405180830381600087803b158015611fe657600080fd5b505af1158015611ffa573d6000803e3d6000fd5b505050506040513d602081101561201057600080fd5b5051949d939c50939a509198505050505050505050565b60008060008342811015612079576040805162461bcd60e51b815260206004820152601460248201527314dbdb185c949bdd5d195c8e881156141254915160621b604482015290519081900360640190fd5b6120a78a7f00000000000000000000000000000000000000000000000000000000000000008b348c8c613359565b909450925060006120f97f00000000000000000000000000000000000000000000000000000000000000008c7f0000000000000000000000000000000000000000000000000000000000000000612b1b565b90506121078b338388612c06565b7f00000000000000000000000000000000000000000000000000000000000000006001600160a01b031663d0e30db0856040518263ffffffff1660e01b81526004016000604051808303818588803b15801561216257600080fd5b505af1158015612176573d6000803e3d6000fd5b50505050507f00000000000000000000000000000000000000000000000000000000000000006001600160a01b031663a9059cbb82866040518363ffffffff1660e01b815260040180836001600160a01b0316815260200182815260200192505050602060405180830381600087803b1580156121f257600080fd5b505af1158015612206573d6000803e3d6000fd5b505050506040513d602081101561221c57600080fd5b505161222457fe5b806001600160a01b0316636a627842886040518263ffffffff1660e01b815260040180826001600160a01b03168152602001915050602060405180830381600087803b15801561227357600080fd5b505af1158015612287573d6000803e3d6000fd5b505050506040513d602081101561229d57600080fd5b50519250348410156122b5576122b5338534036127ef565b505096509650969350505050565b60608142811015612312576040805162461bcd60e51b815260206004820152601460248201527314dbdb185c949bdd5d195c8e881156141254915160621b604482015290519081900360640190fd5b7f00000000000000000000000000000000000000000000000000000000000000006001600160a01b03168686600081811061234957fe5b905060200201356001600160a01b03166001600160a01b0316146123b4576040805162461bcd60e51b815260206004820152601960248201527f536f6c6172526f757465723a20494e56414c49445f5041544800000000000000604482015290519081900360640190fd5b6124127f000000000000000000000000000000000000000000000000000000000000000088888880806020026020016040519081016040528093929190818152602001838360200280828437600092019190915250612fb592505050565b9150348260008151811061242257fe5b602002602001015111156124675760405162461bcd60e51b815260040180806020018281038252602381526020018061393c6023913960400191505060405180910390fd5b7f00000000000000000000000000000000000000000000000000000000000000006001600160a01b031663d0e30db0836000815181106124a357fe5b60200260200101516040518263ffffffff1660e01b81526004016000604051808303818588803b1580156124d657600080fd5b505af11580156124ea573d6000803e3d6000fd5b50505050507f00000000000000000000000000000000000000000000000000000000000000006001600160a01b031663a9059cbb61254f7f00000000000000000000000000000000000000000000000000000000000000008989600081811061175e57fe5b8460008151811061255c57fe5b60200260200101516040518363ffffffff1660e01b815260040180836001600160a01b0316815260200182815260200192505050602060405180830381600087803b1580156125aa57600080fd5b505af11580156125be573d6000803e3d6000fd5b505050506040513d60208110156125d457600080fd5b50516125dc57fe5b61261b82878780806020026020016040519081016040528093929190818152602001838360200280828437600092019190915250899250612d78915050565b8160008151811061262857fe5b602002602001015134111561184757611847338360008151811061264857fe5b602002602001015134036127ef565b604080516001600160a01b038481166024830152604480830185905283518084039091018152606490920183526020820180517bffffffffffffffffffffffffffffffffffffffffffffffffffffffff167fa9059cbb00000000000000000000000000000000000000000000000000000000178152925182516000946060949389169392918291908083835b602083106127025780518252601f1990920191602091820191016126e3565b6001836020036101000a0380198251168184511680821785525050505050509050019150506000604051808303816000865af19150503d8060008114612764576040519150601f19603f3d011682016040523d82523d6000602084013e612769565b606091505b5091509150818015612797575080511580612797575080806020019051602081101561279457600080fd5b50515b6127e8576040805162461bcd60e51b815260206004820152601f60248201527f5472616e7366657248656c7065723a205452414e534645525f4641494c454400604482015290519081900360640190fd5b5050505050565b604080516000808252602082019092526001600160a01b0384169083906040518082805190602001908083835b6020831061283b5780518252601f19909201916020918201910161281c565b6001836020036101000a03801982511681845116808217855250505050505090500191505060006040518083038185875af1925050503d806000811461289d576040519150601f19603f3d011682016040523d82523d6000602084013e6128a2565b606091505b50509050806128e25760405162461bcd60e51b81526004018080602001828103825260238152602001806138f56023913960400191505060405180910390fd5b505050565b60008084116129275760405162461bcd60e51b815260040180806020018281038252602781526020018061381e6027913960400191505060405180910390fd5b6000831180156129375750600082115b6129725760405162461bcd60e51b81526004018080602001828103825260248152602001806138d16024913960400191505060405180910390fd5b600061298161271060196135ea565b9050600061298f8683613642565b9050600061299d8286613642565b905060006129b7836129b189612710613642565b906136ae565b90508082816129c257fe5b0498975050505050505050565b6060600282511015612a28576040805162461bcd60e51b815260206004820152601a60248201527f536f6c61724c6962726172793a20494e56414c49445f50415448000000000000604482015290519081900360640190fd5b815167ffffffffffffffff81118015612a4057600080fd5b50604051908082528060200260200182016040528015612a6a578160200160208202803683370190505b5090508281600081518110612a7b57fe5b60200260200101818152505060005b6001835103811015612b1357600080612acd87868581518110612aa957fe5b6020026020010151878660010181518110612ac057fe5b6020026020010151613706565b91509150612aef848481518110612ae057fe5b602002602001015183836128e7565b848460010181518110612afe57fe5b60209081029190910101525050600101612a8a565b509392505050565b6000806000612b2a858561327b565b604080517fffffffffffffffffffffffffffffffffffffffff000000000000000000000000606094851b811660208084019190915293851b81166034830152825160288184030181526048830184528051908501207fff0000000000000000000000000000000000000000000000000000000000000060688401529a90941b9093166069840152607d8301989098527f0f53772a0b91c61dc3aaaa6aa3f0c898f1dbd2c53070a959c4254207038e064d609d808401919091528851808403909101815260bd909201909752805196019590952095945050505050565b604080516001600160a01b0385811660248301528481166044830152606480830185905283518084039091018152608490920183526020820180517bffffffffffffffffffffffffffffffffffffffffffffffffffffffff166323b872dd60e01b17815292518251600094606094938a169392918291908083835b60208310612ca05780518252601f199092019160209182019101612c81565b6001836020036101000a0380198251168184511680821785525050505050509050019150506000604051808303816000865af19150503d8060008114612d02576040519150601f19603f3d011682016040523d82523d6000602084013e612d07565b606091505b5091509150818015612d35575080511580612d355750808060200190516020811015612d3257600080fd5b50515b612d705760405162461bcd60e51b81526004018080602001828103825260248152602001806139186024913960400191505060405180910390fd5b505050505050565b60005b6001835103811015612faf57600080848381518110612d9657fe5b6020026020010151858460010181518110612dad57fe5b6020026020010151915091506000612dc5838361327b565b5090506000878560010181518110612dd957fe5b60200260200101519050600080836001600160a01b0316866001600160a01b031614612e0757826000612e0b565b6000835b91509150600060028a51038810612e225788612e63565b612e637f0000000000000000000000000000000000000000000000000000000000000000878c8b60020181518110612e5657fe5b6020026020010151612b1b565b9050612e907f00000000000000000000000000000000000000000000000000000000000000008888612b1b565b6001600160a01b031663022c0d9f84848460006040519080825280601f01601f191660200182016040528015612ecd576020820181803683370190505b506040518563ffffffff1660e01b815260040180858152602001848152602001836001600160a01b0316815260200180602001828103825283818151815260200191508051906020019080838360005b83811015612f35578181015183820152602001612f1d565b50505050905090810190601f168015612f625780820380516001836020036101000a031916815260200191505b5095505050505050600060405180830381600087803b158015612f8457600080fd5b505af1158015612f98573d6000803e3d6000fd5b505060019099019850612d7b975050505050505050565b50505050565b606060028251101561300e576040805162461bcd60e51b815260206004820152601a60248201527f536f6c61724c6962726172793a20494e56414c49445f50415448000000000000604482015290519081900360640190fd5b815167ffffffffffffffff8111801561302657600080fd5b50604051908082528060200260200182016040528015613050578160200160208202803683370190505b509050828160018351038151811061306457fe5b60209081029190910101528151600019015b8015612b13576000806130a68786600186038151811061309257fe5b6020026020010151878681518110612ac057fe5b915091506130c88484815181106130b957fe5b602002602001015183836130ed565b8460018503815181106130d757fe5b6020908102919091010152505060001901613076565b600080841161312d5760405162461bcd60e51b81526004018080602001828103825260288152602001806137d56028913960400191505060405180910390fd5b60008311801561313d5750600082115b6131785760405162461bcd60e51b81526004018080602001828103825260248152602001806138d16024913960400191505060405180910390fd5b600061318761271060196135ea565b905060006131a161271061319b8789613642565b90613642565b905060006131b38361319b878a6135ea565b90506131ca60018284816131c357fe5b04906136ae565b979650505050505050565b60008084116132155760405162461bcd60e51b81526004018080602001828103825260218152602001806138896021913960400191505060405180910390fd5b6000831180156132255750600082115b6132605760405162461bcd60e51b81526004018080602001828103825260248152602001806138d16024913960400191505060405180910390fd5b8261326b8584613642565b8161327257fe5b04949350505050565b600080826001600160a01b0316846001600160a01b031614156132cf5760405162461bcd60e51b81526004018080602001828103825260218152602001806137fd6021913960400191505060405180910390fd5b826001600160a01b0316846001600160a01b0316106132ef5782846132f2565b83835b90925090506001600160a01b038216613352576040805162461bcd60e51b815260206004820152601a60248201527f536f6c61724c6962726172793a205a45524f5f41444452455353000000000000604482015290519081900360640190fd5b9250929050565b60008060006001600160a01b03167f00000000000000000000000000000000000000000000000000000000000000006001600160a01b031663e6a439058a8a6040518363ffffffff1660e01b815260040180836001600160a01b03168152602001826001600160a01b031681526020019250505060206040518083038186803b1580156133e557600080fd5b505afa1580156133f9573d6000803e3d6000fd5b505050506040513d602081101561340f57600080fd5b50516001600160a01b031614156134cd577f00000000000000000000000000000000000000000000000000000000000000006001600160a01b031663c9c6539689896040518363ffffffff1660e01b815260040180836001600160a01b03168152602001826001600160a01b0316815260200192505050602060405180830381600087803b1580156134a057600080fd5b505af11580156134b4573d6000803e3d6000fd5b505050506040513d60208110156134ca57600080fd5b50505b6000806134fb7f00000000000000000000000000000000000000000000000000000000000000008b8b613706565b9150915081600014801561350d575080155b1561351d578793508692506135dd565b600061352a8984846131d5565b905087811161357d57858110156135725760405162461bcd60e51b81526004018080602001828103825260228152602001806138456022913960400191505060405180910390fd5b8894509250826135db565b600061358a8984866131d5565b90508981111561359657fe5b878110156135d55760405162461bcd60e51b81526004018080602001828103825260228152602001806138676022913960400191505060405180910390fd5b94508793505b505b5050965096945050505050565b80820382811115610fc6576040805162461bcd60e51b815260206004820152601560248201527f64732d6d6174682d7375622d756e646572666c6f770000000000000000000000604482015290519081900360640190fd5b600081158061365d5750508082028282828161365a57fe5b04145b610fc6576040805162461bcd60e51b815260206004820152601460248201527f64732d6d6174682d6d756c2d6f766572666c6f77000000000000000000000000604482015290519081900360640190fd5b80820182811015610fc6576040805162461bcd60e51b815260206004820152601460248201527f64732d6d6174682d6164642d6f766572666c6f77000000000000000000000000604482015290519081900360640190fd5b6000806000613715858561327b565b509050600080613726888888612b1b565b6001600160a01b0316630902f1ac6040518163ffffffff1660e01b815260040160606040518083038186803b15801561375e57600080fd5b505afa158015613772573d6000803e3d6000fd5b505050506040513d606081101561378857600080fd5b5080516020909101516dffffffffffffffffffffffffffff91821693501690506001600160a01b03878116908416146137c25780826137c5565b81815b9099909850965050505050505056fe536f6c61724c6962726172793a20494e53554646494349454e545f4f55545055545f414d4f554e54536f6c61724c6962726172793a204944454e544943414c5f414444524553534553536f6c61724c6962726172793a20494e53554646494349454e545f494e5055545f414d4f554e54536f6c6172526f757465723a20494e53554646494349454e545f425f414d4f554e54536f6c6172526f757465723a20494e53554646494349454e545f415f414d4f554e54536f6c61724c6962726172793a20494e53554646494349454e545f414d4f554e54536f6c6172526f757465723a20494e53554646494349454e545f4f55545055545f414d4f554e54536f6c61724c6962726172793a20494e53554646494349454e545f4c49515549444954595472616e7366657248656c7065723a204554485f5452414e534645525f4641494c45445472616e7366657248656c7065723a205452414e534645525f46524f4d5f4641494c4544536f6c6172526f757465723a204558434553534956455f494e5055545f414d4f554e54a26469706673582212208232f3ff8bef67c42ebfc1b34e5bd0313548c0df6746ac7fd3ff761c7fd3ee2d64736f6c634300060c0033",
  "immutableReferences": {
    "16": [
      {
        "length": 32,
        "start": 3399
      },
      {
        "length": 32,
        "start": 3614
      },
      {
        "length": 32,
        "start": 3997
      },
      {
        "length": 32,
        "start": 4054
      },
      {
        "length": 32,
        "start": 4378
      },
      {
        "length": 32,
        "start": 4883
      },
      {
        "length": 32,
        "start": 5065
      },
      {
        "length": 32,
        "start": 5573
      },
      {
        "length": 32,
        "start": 5938
      },
      {
        "length": 32,
        "start": 6322
      },
      {
        "length": 32,
        "start": 7031
      },
      {
        "length": 32,
        "start": 7560
      },
      {
        "length": 32,
        "start": 7601
      },
      {
        "length": 32,
        "start": 7649
      },
      {
        "length": 32,
        "start": 8023
      },
      {
        "length": 32,
        "start": 8371
      },
      {
        "length": 32,
        "start": 9145
      },
      {
        "length": 32,
        "start": 9507
      },
      {
        "length": 32,
        "start": 11815
      },
      {
        "length": 32,
        "start": 11882
      },
      {
        "length": 32,
        "start": 13161
      },
      {
        "length": 32,
        "start": 13346
      },
      {
        "length": 32,
        "start": 13525
      }
    ],
    "19": [
      {
        "length": 32,
        "start": 382
      },
      {
        "length": 32,
        "start": 2924
      },
      {
        "length": 32,
        "start": 2983
      },
      {
        "length": 32,
        "start": 3239
      },
      {
        "length": 32,
        "start": 3799
      },
      {
        "length": 32,
        "start": 4723
      },
      {
        "length": 32,
        "start": 5099
      },
      {
        "length": 32,
        "start": 5408
      },
      {
        "length": 32,
        "start": 5752
      },
      {
        "length": 32,
        "start": 5888
      },
      {
        "length": 32,
        "start": 6498
      },
      {
        "length": 32,
        "start": 6630
      },
      {
        "length": 32,
        "start": 6810
      },
      {
        "length": 32,
        "start": 7683
      },
      {
        "length": 32,
        "start": 8319
      },
      {
        "length": 32,
        "start": 8405
      },
      {
        "length": 32,
        "start": 8457
      },
      {
        "length": 32,
        "start": 8573
      },
      {
        "length": 32,
        "start": 8980
      },
      {
        "length": 32,
        "start": 9321
      },
      {
        "length": 32,
        "start": 9457
      }
    ]
  },
  "source": "// SPDX-License-Identifier: GPL-3.0\npragma solidity =0.6.12;\n\nimport \"./libraries/SolarLibrary.sol\";\nimport \"./libraries/SafeMath.sol\";\nimport \"./libraries/TransferHelper.sol\";\nimport \"./interfaces/ISolarRouter02.sol\";\nimport \"./interfaces/ISolarFactory.sol\";\nimport \"./interfaces/IERC20.sol\";\nimport \"./interfaces/IWETH.sol\";\n\ncontract SolarRouter02 is ISolarRouter02 {\n    using SafeMathSolar for uint256;\n\n    address public immutable override factory;\n    address public immutable override WETH;\n\n    modifier ensure(uint256 deadline) {\n        require(deadline >= block.timestamp, \"SolarRouter: EXPIRED\");\n        _;\n    }\n\n    constructor(address _factory, address _WETH) public {\n        factory = _factory;\n        WETH = _WETH;\n    }\n\n    receive() external payable {\n        assert(msg.sender == WETH); // only accept ETH via fallback from the WETH contract\n    }\n\n    // **** ADD LIQUIDITY ****\n    function _addLiquidity(\n        address tokenA,\n        address tokenB,\n        uint256 amountADesired,\n        uint256 amountBDesired,\n        uint256 amountAMin,\n        uint256 amountBMin\n    ) internal virtual returns (uint256 amountA, uint256 amountB) {\n        // create the pair if it doesn't exist yet\n        if (ISolarFactory(factory).getPair(tokenA, tokenB) == address(0)) {\n            ISolarFactory(factory).createPair(tokenA, tokenB);\n        }\n        (uint256 reserveA, uint256 reserveB) = SolarLibrary.getReserves(\n            factory,\n            tokenA,\n            tokenB\n        );\n        if (reserveA == 0 && reserveB == 0) {\n            (amountA, amountB) = (amountADesired, amountBDesired);\n        } else {\n            uint256 amountBOptimal = SolarLibrary.quote(\n                amountADesired,\n                reserveA,\n                reserveB\n            );\n            if (amountBOptimal <= amountBDesired) {\n                require(\n                    amountBOptimal >= amountBMin,\n                    \"SolarRouter: INSUFFICIENT_B_AMOUNT\"\n                );\n                (amountA, amountB) = (amountADesired, amountBOptimal);\n            } else {\n                uint256 amountAOptimal = SolarLibrary.quote(\n                    amountBDesired,\n                    reserveB,\n                    reserveA\n                );\n                assert(amountAOptimal <= amountADesired);\n                require(\n                    amountAOptimal >= amountAMin,\n                    \"SolarRouter: INSUFFICIENT_A_AMOUNT\"\n                );\n                (amountA, amountB) = (amountAOptimal, amountBDesired);\n            }\n        }\n    }\n\n    function addLiquidity(\n        address tokenA,\n        address tokenB,\n        uint256 amountADesired,\n        uint256 amountBDesired,\n        uint256 amountAMin,\n        uint256 amountBMin,\n        address to,\n        uint256 deadline\n    )\n        external\n        virtual\n        override\n        ensure(deadline)\n        returns (\n            uint256 amountA,\n            uint256 amountB,\n            uint256 liquidity\n        )\n    {\n        (amountA, amountB) = _addLiquidity(\n            tokenA,\n            tokenB,\n            amountADesired,\n            amountBDesired,\n            amountAMin,\n            amountBMin\n        );\n        address pair = SolarLibrary.pairFor(factory, tokenA, tokenB);\n        TransferHelper.safeTransferFrom(tokenA, msg.sender, pair, amountA);\n        TransferHelper.safeTransferFrom(tokenB, msg.sender, pair, amountB);\n        liquidity = ISolarPair(pair).mint(to);\n    }\n\n    function addLiquidityETH(\n        address token,\n        uint256 amountTokenDesired,\n        uint256 amountTokenMin,\n        uint256 amountETHMin,\n        address to,\n        uint256 deadline\n    )\n        external\n        payable\n        virtual\n        override\n        ensure(deadline)\n        returns (\n            uint256 amountToken,\n            uint256 amountETH,\n            uint256 liquidity\n        )\n    {\n        (amountToken, amountETH) = _addLiquidity(\n            token,\n            WETH,\n            amountTokenDesired,\n            msg.value,\n            amountTokenMin,\n            amountETHMin\n        );\n        address pair = SolarLibrary.pairFor(factory, token, WETH);\n        TransferHelper.safeTransferFrom(token, msg.sender, pair, amountToken);\n        IWETH(WETH).deposit{value: amountETH}();\n        assert(IWETH(WETH).transfer(pair, amountETH));\n        liquidity = ISolarPair(pair).mint(to);\n        // refund dust eth, if any\n        if (msg.value > amountETH)\n            TransferHelper.safeTransferETH(msg.sender, msg.value - amountETH);\n    }\n\n    // **** REMOVE LIQUIDITY ****\n    function removeLiquidity(\n        address tokenA,\n        address tokenB,\n        uint256 liquidity,\n        uint256 amountAMin,\n        uint256 amountBMin,\n        address to,\n        uint256 deadline\n    )\n        public\n        virtual\n        override\n        ensure(deadline)\n        returns (uint256 amountA, uint256 amountB)\n    {\n        address pair = SolarLibrary.pairFor(factory, tokenA, tokenB);\n        ISolarPair(pair).transferFrom(msg.sender, pair, liquidity); // send liquidity to pair\n        (uint256 amount0, uint256 amount1) = ISolarPair(pair).burn(to);\n        (address token0, ) = SolarLibrary.sortTokens(tokenA, tokenB);\n        (amountA, amountB) = tokenA == token0\n            ? (amount0, amount1)\n            : (amount1, amount0);\n        require(amountA >= amountAMin, \"SolarRouter: INSUFFICIENT_A_AMOUNT\");\n        require(amountB >= amountBMin, \"SolarRouter: INSUFFICIENT_B_AMOUNT\");\n    }\n\n    function removeLiquidityETH(\n        address token,\n        uint256 liquidity,\n        uint256 amountTokenMin,\n        uint256 amountETHMin,\n        address to,\n        uint256 deadline\n    )\n        public\n        virtual\n        override\n        ensure(deadline)\n        returns (uint256 amountToken, uint256 amountETH)\n    {\n        (amountToken, amountETH) = removeLiquidity(\n            token,\n            WETH,\n            liquidity,\n            amountTokenMin,\n            amountETHMin,\n            address(this),\n            deadline\n        );\n        TransferHelper.safeTransfer(token, to, amountToken);\n        IWETH(WETH).withdraw(amountETH);\n        TransferHelper.safeTransferETH(to, amountETH);\n    }\n\n    function removeLiquidityWithPermit(\n        address tokenA,\n        address tokenB,\n        uint256 liquidity,\n        uint256 amountAMin,\n        uint256 amountBMin,\n        address to,\n        uint256 deadline,\n        bool approveMax,\n        uint8 v,\n        bytes32 r,\n        bytes32 s\n    ) external virtual override returns (uint256 amountA, uint256 amountB) {\n        address pair = SolarLibrary.pairFor(factory, tokenA, tokenB);\n        uint256 value = approveMax ? uint256(-1) : liquidity;\n        ISolarPair(pair).permit(\n            msg.sender,\n            address(this),\n            value,\n            deadline,\n            v,\n            r,\n            s\n        );\n        (amountA, amountB) = removeLiquidity(\n            tokenA,\n            tokenB,\n            liquidity,\n            amountAMin,\n            amountBMin,\n            to,\n            deadline\n        );\n    }\n\n    function removeLiquidityETHWithPermit(\n        address token,\n        uint256 liquidity,\n        uint256 amountTokenMin,\n        uint256 amountETHMin,\n        address to,\n        uint256 deadline,\n        bool approveMax,\n        uint8 v,\n        bytes32 r,\n        bytes32 s\n    )\n        external\n        virtual\n        override\n        returns (uint256 amountToken, uint256 amountETH)\n    {\n        address pair = SolarLibrary.pairFor(factory, token, WETH);\n        uint256 value = approveMax ? uint256(-1) : liquidity;\n        ISolarPair(pair).permit(\n            msg.sender,\n            address(this),\n            value,\n            deadline,\n            v,\n            r,\n            s\n        );\n        (amountToken, amountETH) = removeLiquidityETH(\n            token,\n            liquidity,\n            amountTokenMin,\n            amountETHMin,\n            to,\n            deadline\n        );\n    }\n\n    // **** REMOVE LIQUIDITY (supporting fee-on-transfer tokens) ****\n    function removeLiquidityETHSupportingFeeOnTransferTokens(\n        address token,\n        uint256 liquidity,\n        uint256 amountTokenMin,\n        uint256 amountETHMin,\n        address to,\n        uint256 deadline\n    ) public virtual override ensure(deadline) returns (uint256 amountETH) {\n        (, amountETH) = removeLiquidity(\n            token,\n            WETH,\n            liquidity,\n            amountTokenMin,\n            amountETHMin,\n            address(this),\n            deadline\n        );\n        TransferHelper.safeTransfer(\n            token,\n            to,\n            IERC20Solar(token).balanceOf(address(this))\n        );\n        IWETH(WETH).withdraw(amountETH);\n        TransferHelper.safeTransferETH(to, amountETH);\n    }\n\n    function removeLiquidityETHWithPermitSupportingFeeOnTransferTokens(\n        address token,\n        uint256 liquidity,\n        uint256 amountTokenMin,\n        uint256 amountETHMin,\n        address to,\n        uint256 deadline,\n        bool approveMax,\n        uint8 v,\n        bytes32 r,\n        bytes32 s\n    ) external virtual override returns (uint256 amountETH) {\n        address pair = SolarLibrary.pairFor(factory, token, WETH);\n        uint256 value = approveMax ? uint256(-1) : liquidity;\n        ISolarPair(pair).permit(\n            msg.sender,\n            address(this),\n            value,\n            deadline,\n            v,\n            r,\n            s\n        );\n        amountETH = removeLiquidityETHSupportingFeeOnTransferTokens(\n            token,\n            liquidity,\n            amountTokenMin,\n            amountETHMin,\n            to,\n            deadline\n        );\n    }\n\n    // **** SWAP ****\n    // requires the initial amount to have already been sent to the first pair\n    function _swap(\n        uint256[] memory amounts,\n        address[] memory path,\n        address _to\n    ) internal virtual {\n        for (uint256 i; i < path.length - 1; i++) {\n            (address input, address output) = (path[i], path[i + 1]);\n            (address token0, ) = SolarLibrary.sortTokens(input, output);\n            uint256 amountOut = amounts[i + 1];\n            (uint256 amount0Out, uint256 amount1Out) = input == token0\n                ? (uint256(0), amountOut)\n                : (amountOut, uint256(0));\n            address to = i < path.length - 2\n                ? SolarLibrary.pairFor(factory, output, path[i + 2])\n                : _to;\n            ISolarPair(SolarLibrary.pairFor(factory, input, output)).swap(\n                amount0Out,\n                amount1Out,\n                to,\n                new bytes(0)\n            );\n        }\n    }\n\n    function swapExactTokensForTokens(\n        uint256 amountIn,\n        uint256 amountOutMin,\n        address[] calldata path,\n        address to,\n        uint256 deadline\n    )\n        external\n        virtual\n        override\n        ensure(deadline)\n        returns (uint256[] memory amounts)\n    {\n        amounts = SolarLibrary.getAmountsOut(factory, amountIn, path);\n        require(\n            amounts[amounts.length - 1] >= amountOutMin,\n            \"SolarRouter: INSUFFICIENT_OUTPUT_AMOUNT\"\n        );\n        TransferHelper.safeTransferFrom(\n            path[0],\n            msg.sender,\n            SolarLibrary.pairFor(factory, path[0], path[1]),\n            amounts[0]\n        );\n        _swap(amounts, path, to);\n    }\n\n    function swapTokensForExactTokens(\n        uint256 amountOut,\n        uint256 amountInMax,\n        address[] calldata path,\n        address to,\n        uint256 deadline\n    )\n        external\n        virtual\n        override\n        ensure(deadline)\n        returns (uint256[] memory amounts)\n    {\n        amounts = SolarLibrary.getAmountsIn(factory, amountOut, path);\n        require(\n            amounts[0] <= amountInMax,\n            \"SolarRouter: EXCESSIVE_INPUT_AMOUNT\"\n        );\n        TransferHelper.safeTransferFrom(\n            path[0],\n            msg.sender,\n            SolarLibrary.pairFor(factory, path[0], path[1]),\n            amounts[0]\n        );\n        _swap(amounts, path, to);\n    }\n\n    function swapExactETHForTokens(\n        uint256 amountOutMin,\n        address[] calldata path,\n        address to,\n        uint256 deadline\n    )\n        external\n        payable\n        virtual\n        override\n        ensure(deadline)\n        returns (uint256[] memory amounts)\n    {\n        require(path[0] == WETH, \"SolarRouter: INVALID_PATH\");\n        amounts = SolarLibrary.getAmountsOut(factory, msg.value, path);\n        require(\n            amounts[amounts.length - 1] >= amountOutMin,\n            \"SolarRouter: INSUFFICIENT_OUTPUT_AMOUNT\"\n        );\n        IWETH(WETH).deposit{value: amounts[0]}();\n        assert(\n            IWETH(WETH).transfer(\n                SolarLibrary.pairFor(factory, path[0], path[1]),\n                amounts[0]\n            )\n        );\n        _swap(amounts, path, to);\n    }\n\n    function swapTokensForExactETH(\n        uint256 amountOut,\n        uint256 amountInMax,\n        address[] calldata path,\n        address to,\n        uint256 deadline\n    )\n        external\n        virtual\n        override\n        ensure(deadline)\n        returns (uint256[] memory amounts)\n    {\n        require(path[path.length - 1] == WETH, \"SolarRouter: INVALID_PATH\");\n        amounts = SolarLibrary.getAmountsIn(factory, amountOut, path);\n        require(\n            amounts[0] <= amountInMax,\n            \"SolarRouter: EXCESSIVE_INPUT_AMOUNT\"\n        );\n        TransferHelper.safeTransferFrom(\n            path[0],\n            msg.sender,\n            SolarLibrary.pairFor(factory, path[0], path[1]),\n            amounts[0]\n        );\n        _swap(amounts, path, address(this));\n        IWETH(WETH).withdraw(amounts[amounts.length - 1]);\n        TransferHelper.safeTransferETH(to, amounts[amounts.length - 1]);\n    }\n\n    function swapExactTokensForETH(\n        uint256 amountIn,\n        uint256 amountOutMin,\n        address[] calldata path,\n        address to,\n        uint256 deadline\n    )\n        external\n        virtual\n        override\n        ensure(deadline)\n        returns (uint256[] memory amounts)\n    {\n        require(path[path.length - 1] == WETH, \"SolarRouter: INVALID_PATH\");\n        amounts = SolarLibrary.getAmountsOut(factory, amountIn, path);\n        require(\n            amounts[amounts.length - 1] >= amountOutMin,\n            \"SolarRouter: INSUFFICIENT_OUTPUT_AMOUNT\"\n        );\n        TransferHelper.safeTransferFrom(\n            path[0],\n            msg.sender,\n            SolarLibrary.pairFor(factory, path[0], path[1]),\n            amounts[0]\n        );\n        _swap(amounts, path, address(this));\n        IWETH(WETH).withdraw(amounts[amounts.length - 1]);\n        TransferHelper.safeTransferETH(to, amounts[amounts.length - 1]);\n    }\n\n    function swapETHForExactTokens(\n        uint256 amountOut,\n        address[] calldata path,\n        address to,\n        uint256 deadline\n    )\n        external\n        payable\n        virtual\n        override\n        ensure(deadline)\n        returns (uint256[] memory amounts)\n    {\n        require(path[0] == WETH, \"SolarRouter: INVALID_PATH\");\n        amounts = SolarLibrary.getAmountsIn(factory, amountOut, path);\n        require(amounts[0] <= msg.value, \"SolarRouter: EXCESSIVE_INPUT_AMOUNT\");\n        IWETH(WETH).deposit{value: amounts[0]}();\n        assert(\n            IWETH(WETH).transfer(\n                SolarLibrary.pairFor(factory, path[0], path[1]),\n                amounts[0]\n            )\n        );\n        _swap(amounts, path, to);\n        // refund dust eth, if any\n        if (msg.value > amounts[0])\n            TransferHelper.safeTransferETH(msg.sender, msg.value - amounts[0]);\n    }\n    /*\n    // **** SWAP (supporting fee-on-transfer tokens) ****\n    // requires the initial amount to have already been sent to the first pair\n    function _swapSupportingFeeOnTransferTokens(\n        address[] memory path,\n        address _to\n    ) internal virtual {\n        for (uint256 i; i < path.length - 1; i++) {\n            (address input, address output) = (path[i], path[i + 1]);\n            (address token0, ) = SolarLibrary.sortTokens(input, output);\n            ISolarPair pair = ISolarPair(\n                SolarLibrary.pairFor(factory, input, output)\n            );\n            uint256 amountInput;\n            uint256 amountOutput;\n\n            {\n                // scope to avoid stack too deep errors\n                (uint256 reserve0, uint256 reserve1, ) = pair.getReserves();\n                (uint256 reserveInput, uint256 reserveOutput) = input == token0\n                    ? (reserve0, reserve1)\n                    : (reserve1, reserve0);\n                amountInput = IERC20Solar(input).balanceOf(address(pair)).sub(\n                    reserveInput\n                );\n                amountOutput = SolarLibrary.getAmountOut(\n                    amountInput,\n                    reserveInput,\n                    reserveOutput\n                );\n            }\n\n            (uint256 amount0Out, uint256 amount1Out) = input == token0\n                ? (uint256(0), amountOutput)\n                : (amountOutput, uint256(0));\n            address to = i < path.length - 2\n                ? SolarLibrary.pairFor(factory, output, path[i + 2])\n                : _to;\n            pair.swap(amount0Out, amount1Out, to, new bytes(0));\n        }\n    }\n\n    function swapExactTokensForTokensSupportingFeeOnTransferTokens(\n        uint256 amountIn,\n        uint256 amountOutMin,\n        address[] calldata path,\n        address to,\n        uint256 deadline\n    ) external virtual override ensure(deadline) {\n        TransferHelper.safeTransferFrom(\n            path[0],\n            msg.sender,\n            SolarLibrary.pairFor(factory, path[0], path[1]),\n            amountIn\n        );\n        uint256 balanceBefore = IERC20Solar(path[path.length - 1]).balanceOf(\n            to\n        );\n        _swapSupportingFeeOnTransferTokens(path, to);\n        require(\n            IERC20Solar(path[path.length - 1]).balanceOf(to).sub(\n                balanceBefore\n            ) >= amountOutMin,\n            \"SolarRouter: INSUFFICIENT_OUTPUT_AMOUNT\"\n        );\n    }\n\n    function swapExactETHForTokensSupportingFeeOnTransferTokens(\n        uint256 amountOutMin,\n        address[] calldata path,\n        address to,\n        uint256 deadline\n    ) external payable virtual override ensure(deadline) {\n        require(path[0] == WETH, \"SolarRouter: INVALID_PATH\");\n        uint256 amountIn = msg.value;\n        IWETH(WETH).deposit{value: amountIn}();\n        assert(\n            IWETH(WETH).transfer(\n                SolarLibrary.pairFor(factory, path[0], path[1]),\n                amountIn\n            )\n        );\n        uint256 balanceBefore = IERC20Solar(path[path.length - 1]).balanceOf(\n            to\n        );\n        _swapSupportingFeeOnTransferTokens(path, to);\n        require(\n            IERC20Solar(path[path.length - 1]).balanceOf(to).sub(\n                balanceBefore\n            ) >= amountOutMin,\n            \"SolarRouter: INSUFFICIENT_OUTPUT_AMOUNT\"\n        );\n    }\n\n    function swapExactTokensForETHSupportingFeeOnTransferTokens(\n        uint256 amountIn,\n        uint256 amountOutMin,\n        address[] calldata path,\n        address to,\n        uint256 deadline\n    ) external virtual override ensure(deadline) {\n        require(path[path.length - 1] == WETH, \"SolarRouter: INVALID_PATH\");\n        TransferHelper.safeTransferFrom(\n            path[0],\n            msg.sender,\n            SolarLibrary.pairFor(factory, path[0], path[1]),\n            amountIn\n        );\n        _swapSupportingFeeOnTransferTokens(path, address(this));\n        uint256 amountOut = IERC20Solar(WETH).balanceOf(address(this));\n        require(\n            amountOut >= amountOutMin,\n            \"SolarRouter: INSUFFICIENT_OUTPUT_AMOUNT\"\n        );\n        IWETH(WETH).withdraw(amountOut);\n        TransferHelper.safeTransferETH(to, amountOut);\n    }\n    */\n    // **** LIBRARY FUNCTIONS ****\n    function quote(\n        uint256 amountA,\n        uint256 reserveA,\n        uint256 reserveB\n    ) public pure virtual override returns (uint256 amountB) {\n        return SolarLibrary.quote(amountA, reserveA, reserveB);\n    }\n\n    function getAmountOut(\n        uint256 amountIn,\n        uint256 reserveIn,\n        uint256 reserveOut\n    ) public pure virtual override returns (uint256 amountOut) {\n        return SolarLibrary.getAmountOut(amountIn, reserveIn, reserveOut);\n    }\n\n    function getAmountIn(\n        uint256 amountOut,\n        uint256 reserveIn,\n        uint256 reserveOut\n    ) public pure virtual override returns (uint256 amountIn) {\n        return SolarLibrary.getAmountIn(amountOut, reserveIn, reserveOut);\n    }\n\n    function getAmountsOut(uint256 amountIn, address[] memory path)\n        public\n        view\n        virtual\n        override\n        returns (uint256[] memory amounts)\n    {\n        return SolarLibrary.getAmountsOut(factory, amountIn, path);\n    }\n\n    function getAmountsIn(uint256 amountOut, address[] memory path)\n        public\n        view\n        virtual\n        override\n        returns (uint256[] memory amounts)\n    {\n        return SolarLibrary.getAmountsIn(factory, amountOut, path);\n    }\n}\n",
  "sourcePath": "/home/hamed/Dropbox/DeX/GEOS/Factory/contracts/SolarRouter02.sol",
  "compiler": {
    "name": "solc",
    "version": "0.6.12+commit.27d51765.Emscripten.clang"
  },
  "schemaVersion": "3.4.7",
  "updatedAt": "2022-04-26T18:13:02.546Z",
  "networkType": "ethereum",
  "devdoc": {
    "kind": "dev",
    "methods": {},
    "version": 1
  },
  "userdoc": {
    "kind": "user",
    "methods": {},
    "version": 1
  }
}